{
  "contractName": "OathKeeper",
  "abi": [
    {
      "inputs": [],
      "stateMutability": "nonpayable",
      "type": "constructor"
    },
    {
      "anonymous": false,
      "inputs": [
        {
          "indexed": true,
          "internalType": "uint256",
          "name": "milestoneId",
          "type": "uint256"
        }
      ],
      "name": "confirmationsComplete",
      "type": "event"
    },
    {
      "anonymous": false,
      "inputs": [
        {
          "indexed": true,
          "internalType": "uint256",
          "name": "oathId",
          "type": "uint256"
        }
      ],
      "name": "milestoneCreatedForOath",
      "type": "event"
    },
    {
      "anonymous": false,
      "inputs": [
        {
          "indexed": true,
          "internalType": "uint256",
          "name": "oathid",
          "type": "uint256"
        }
      ],
      "name": "oathCreated",
      "type": "event"
    },
    {
      "anonymous": false,
      "inputs": [
        {
          "indexed": false,
          "internalType": "address",
          "name": "oathGiver",
          "type": "address"
        },
        {
          "indexed": true,
          "internalType": "uint256",
          "name": "oathid",
          "type": "uint256"
        },
        {
          "indexed": true,
          "internalType": "uint256",
          "name": "milestoneId",
          "type": "uint256"
        }
      ],
      "name": "oathGiverMarkMilestone",
      "type": "event"
    },
    {
      "anonymous": false,
      "inputs": [
        {
          "indexed": false,
          "internalType": "address",
          "name": "oathTaker",
          "type": "address"
        },
        {
          "indexed": true,
          "internalType": "uint256",
          "name": "oathid",
          "type": "uint256"
        },
        {
          "indexed": true,
          "internalType": "uint256",
          "name": "milestoneId",
          "type": "uint256"
        }
      ],
      "name": "oathTakerMarkMilestone",
      "type": "event"
    },
    {
      "anonymous": false,
      "inputs": [
        {
          "indexed": false,
          "internalType": "address",
          "name": "recipient",
          "type": "address"
        },
        {
          "indexed": false,
          "internalType": "uint256",
          "name": "amount",
          "type": "uint256"
        }
      ],
      "name": "recipientCredited",
      "type": "event"
    },
    {
      "anonymous": false,
      "inputs": [
        {
          "indexed": true,
          "internalType": "address",
          "name": "recipient",
          "type": "address"
        },
        {
          "indexed": true,
          "internalType": "uint256",
          "name": "amount",
          "type": "uint256"
        }
      ],
      "name": "withdrawalMade",
      "type": "event"
    },
    {
      "stateMutability": "payable",
      "type": "fallback",
      "payable": true
    },
    {
      "inputs": [
        {
          "internalType": "uint256",
          "name": "",
          "type": "uint256"
        },
        {
          "internalType": "uint256",
          "name": "",
          "type": "uint256"
        }
      ],
      "name": "milestones",
      "outputs": [
        {
          "internalType": "string",
          "name": "milestoneBody",
          "type": "string"
        },
        {
          "internalType": "uint256",
          "name": "confirmations",
          "type": "uint256"
        },
        {
          "internalType": "uint256",
          "name": "confirmationsSoFar",
          "type": "uint256"
        },
        {
          "internalType": "uint256",
          "name": "milestoneValue",
          "type": "uint256"
        },
        {
          "internalType": "uint256",
          "name": "milestoneCreated",
          "type": "uint256"
        },
        {
          "internalType": "uint256",
          "name": "milestoneDeadline",
          "type": "uint256"
        },
        {
          "internalType": "bool",
          "name": "oathGiverVerified",
          "type": "bool"
        },
        {
          "internalType": "bool",
          "name": "oathTakerVerified",
          "type": "bool"
        },
        {
          "internalType": "bool",
          "name": "completed",
          "type": "bool"
        }
      ],
      "stateMutability": "view",
      "type": "function",
      "constant": true
    },
    {
      "inputs": [
        {
          "internalType": "uint256",
          "name": "",
          "type": "uint256"
        }
      ],
      "name": "oaths",
      "outputs": [
        {
          "internalType": "uint256",
          "name": "Id",
          "type": "uint256"
        },
        {
          "internalType": "string",
          "name": "body",
          "type": "string"
        },
        {
          "internalType": "uint256",
          "name": "timeCreated",
          "type": "uint256"
        },
        {
          "internalType": "uint256",
          "name": "deadline",
          "type": "uint256"
        },
        {
          "internalType": "uint256",
          "name": "oathValue",
          "type": "uint256"
        },
        {
          "internalType": "address payable",
          "name": "oathGiver",
          "type": "address"
        },
        {
          "internalType": "address payable",
          "name": "oathTaker",
          "type": "address"
        },
        {
          "internalType": "address payable",
          "name": "defaultsRecipient",
          "type": "address"
        },
        {
          "internalType": "address payable",
          "name": "completionRecipient",
          "type": "address"
        },
        {
          "internalType": "bool",
          "name": "useVerifiers",
          "type": "bool"
        },
        {
          "internalType": "uint256",
          "name": "milestoneCount",
          "type": "uint256"
        }
      ],
      "stateMutability": "view",
      "type": "function",
      "constant": true
    },
    {
      "inputs": [],
      "name": "owner",
      "outputs": [
        {
          "internalType": "address payable",
          "name": "",
          "type": "address"
        }
      ],
      "stateMutability": "view",
      "type": "function",
      "constant": true
    },
    {
      "inputs": [
        {
          "internalType": "address",
          "name": "",
          "type": "address"
        }
      ],
      "name": "pendingWithdrawals",
      "outputs": [
        {
          "internalType": "uint256",
          "name": "",
          "type": "uint256"
        }
      ],
      "stateMutability": "view",
      "type": "function",
      "constant": true
    },
    {
      "inputs": [],
      "name": "stopped",
      "outputs": [
        {
          "internalType": "bool",
          "name": "",
          "type": "bool"
        }
      ],
      "stateMutability": "view",
      "type": "function",
      "constant": true
    },
    {
      "stateMutability": "payable",
      "type": "receive",
      "payable": true
    },
    {
      "inputs": [],
      "name": "pauseContract",
      "outputs": [],
      "stateMutability": "nonpayable",
      "type": "function"
    },
    {
      "inputs": [],
      "name": "startContract",
      "outputs": [],
      "stateMutability": "nonpayable",
      "type": "function"
    },
    {
      "inputs": [
        {
          "internalType": "uint256",
          "name": "_deadline",
          "type": "uint256"
        },
        {
          "internalType": "address payable",
          "name": "_oathTaker",
          "type": "address"
        },
        {
          "internalType": "address payable",
          "name": "_defaultsRecipient",
          "type": "address"
        },
        {
          "internalType": "address payable",
          "name": "_completionRecipient",
          "type": "address"
        },
        {
          "internalType": "string",
          "name": "_body",
          "type": "string"
        }
      ],
      "name": "createOath",
      "outputs": [
        {
          "internalType": "uint256",
          "name": "_oathId",
          "type": "uint256"
        }
      ],
      "stateMutability": "nonpayable",
      "type": "function"
    },
    {
      "inputs": [],
      "name": "getOathCount",
      "outputs": [
        {
          "internalType": "uint256",
          "name": "",
          "type": "uint256"
        }
      ],
      "stateMutability": "view",
      "type": "function",
      "constant": true
    },
    {
      "inputs": [
        {
          "internalType": "uint256",
          "name": "_oathId",
          "type": "uint256"
        },
        {
          "internalType": "string",
          "name": "_milestoneBody",
          "type": "string"
        },
        {
          "internalType": "uint8",
          "name": "_confirmations",
          "type": "uint8"
        },
        {
          "internalType": "uint256",
          "name": "_milestoneDeadline",
          "type": "uint256"
        }
      ],
      "name": "addMilestoneToOath",
      "outputs": [
        {
          "internalType": "uint256",
          "name": "",
          "type": "uint256"
        }
      ],
      "stateMutability": "payable",
      "type": "function",
      "payable": true
    },
    {
      "inputs": [
        {
          "internalType": "uint256",
          "name": "_oathId",
          "type": "uint256"
        },
        {
          "internalType": "uint256",
          "name": "_milestoneId",
          "type": "uint256"
        }
      ],
      "name": "oathGiverMarkMilestoneAsDone",
      "outputs": [
        {
          "internalType": "uint256",
          "name": "",
          "type": "uint256"
        },
        {
          "internalType": "uint256",
          "name": "",
          "type": "uint256"
        }
      ],
      "stateMutability": "nonpayable",
      "type": "function"
    },
    {
      "inputs": [
        {
          "internalType": "uint256",
          "name": "_oathId",
          "type": "uint256"
        },
        {
          "internalType": "uint256",
          "name": "_milestoneId",
          "type": "uint256"
        }
      ],
      "name": "oathTakerMarkMilestoneAsDone",
      "outputs": [
        {
          "internalType": "uint256",
          "name": "",
          "type": "uint256"
        },
        {
          "internalType": "uint256",
          "name": "",
          "type": "uint256"
        }
      ],
      "stateMutability": "nonpayable",
      "type": "function"
    },
    {
      "inputs": [],
      "name": "withdrawFunds",
      "outputs": [
        {
          "internalType": "uint256",
          "name": "",
          "type": "uint256"
        }
      ],
      "stateMutability": "nonpayable",
      "type": "function"
    }
  ],
  "bytecode": "0x6080604052600080556000600160006101000a81548160ff02191690831515021790555034801561002f57600080fd5b50336001806101000a81548173ffffffffffffffffffffffffffffffffffffffff021916908373ffffffffffffffffffffffffffffffffffffffff1602179055506128938061007f6000396000f3fe6080604052600436106100c65760003560e01c80635fb02f4d1161007f578063875120fb11610059578063875120fb146102785780638da5cb5b146102b557806390322590146102e0578063f3f437031461031e576100cd565b80635fb02f4d146101f8578063743888d01461020f57806375f12b211461024d576100cd565b806305fb3451146100cf578063090f2531146101165780631c376c631461014157806324600fc31461018657806337130ec2146101b1578063439766ce146101e1576100cd565b366100cd57005b005b3480156100db57600080fd5b506100f660048036038101906100f19190611be2565b61035b565b60405161010d9b9a99989796959493929190611d13565b60405180910390f35b34801561012257600080fd5b5061012b6104ca565b6040516101389190611dc5565b60405180910390f35b34801561014d57600080fd5b5061016860048036038101906101639190611de0565b6104d3565b60405161017d99989796959493929190611e20565b60405180910390f35b34801561019257600080fd5b5061019b6105ed565b6040516101a89190611dc5565b60405180910390f35b6101cb60048036038101906101c69190612022565b6107de565b6040516101d89190611dc5565b60405180910390f35b3480156101ed57600080fd5b506101f6610c0b565b005b34801561020457600080fd5b5061020d610cb7565b005b34801561021b57600080fd5b5061023660048036038101906102319190611de0565b610d64565b6040516102449291906120a5565b60405180910390f35b34801561025957600080fd5b506102626111c7565b60405161026f91906120ce565b60405180910390f35b34801561028457600080fd5b5061029f600480360381019061029a9190612115565b6111da565b6040516102ac9190611dc5565b60405180910390f35b3480156102c157600080fd5b506102ca6114e8565b6040516102d791906121ac565b60405180910390f35b3480156102ec57600080fd5b5061030760048036038101906103029190611de0565b61150c565b6040516103159291906120a5565b60405180910390f35b34801561032a57600080fd5b5061034560048036038101906103409190612205565b611ac7565b6040516103529190611dc5565b60405180910390f35b600360205280600052604060002060009150905080600001549080600101805461038490612261565b80601f01602080910402602001604051908101604052809291908181526020018280546103b090612261565b80156103fd5780601f106103d2576101008083540402835291602001916103fd565b820191906000526020600020905b8154815290600101906020018083116103e057829003601f168201915b5050505050908060020154908060030154908060040154908060050160009054906101000a900473ffffffffffffffffffffffffffffffffffffffff16908060060160009054906101000a900473ffffffffffffffffffffffffffffffffffffffff16908060070160009054906101000a900473ffffffffffffffffffffffffffffffffffffffff16908060080160009054906101000a900473ffffffffffffffffffffffffffffffffffffffff16908060080160149054906101000a900460ff1690806009015490508b565b60008054905090565b600460205281600052604060002081815481106104ef57600080fd5b90600052602060002090600702016000915091505080600001805461051390612261565b80601f016020809104026020016040519081016040528092919081815260200182805461053f90612261565b801561058c5780601f106105615761010080835404028352916020019161058c565b820191906000526020600020905b81548152906001019060200180831161056f57829003601f168201915b5050505050908060010154908060020154908060030154908060040154908060050154908060060160009054906101000a900460ff16908060060160019054906101000a900460ff16908060060160029054906101000a900460ff16905089565b6000336000600260008373ffffffffffffffffffffffffffffffffffffffff1673ffffffffffffffffffffffffffffffffffffffff168152602001908152602001600020541415610673576040517f08c379a000000000000000000000000000000000000000000000000000000000815260040161066a90612305565b60405180910390fd5b600160009054906101000a900460ff166106c2576040517f08c379a00000000000000000000000000000000000000000000000000000000081526004016106b990612371565b60405180910390fd5b6000600260003373ffffffffffffffffffffffffffffffffffffffff1673ffffffffffffffffffffffffffffffffffffffff1681526020019081526020016000205490506000600260003373ffffffffffffffffffffffffffffffffffffffff1673ffffffffffffffffffffffffffffffffffffffff168152602001908152602001600020819055503373ffffffffffffffffffffffffffffffffffffffff166108fc829081150290604051600060405180830381858888f19350505050158015610791573d6000803e3d6000fd5b50803373ffffffffffffffffffffffffffffffffffffffff167f1645bc385806bd472276f1f751ecfe0ee20d0ffd7d8ee85761562bdb01e54e6a60405160405180910390a3809250505090565b6000600160009054906101000a900460ff1615610830576040517f08c379a0000000000000000000000000000000000000000000000000000000008152600401610827906123dd565b60405180910390fd5b8460006003600083815260200190815260200160002060020154141561088b576040517f08c379a000000000000000000000000000000000000000000000000000000000815260040161088290612449565b60405180910390fd5b3334808273ffffffffffffffffffffffffffffffffffffffff163110156108e7576040517f08c379a00000000000000000000000000000000000000000000000000000000081526004016108de906124db565b60405180910390fd5b33886003600082815260200190815260200160002060050160009054906101000a900473ffffffffffffffffffffffffffffffffffffffff1673ffffffffffffffffffffffffffffffffffffffff168273ffffffffffffffffffffffffffffffffffffffff161461098d576040517f08c379a00000000000000000000000000000000000000000000000000000000081526004016109849061256d565b60405180910390fd5b60018054906101000a900473ffffffffffffffffffffffffffffffffffffffff1673ffffffffffffffffffffffffffffffffffffffff166108fc349081150290604051600060405180830381858888f193505050501580156109f3573d6000803e3d6000fd5b5060006040518061012001604052808b81526020018a60ff16815260200160008152602001348152602001428152602001610a378a42611adf90919063ffffffff16565b8152602001600015158152602001600015158152602001600015158152509050600460008c81526020019081526020016000208190806001815401808255809150506001900390600052602060002090600702016000909190919091506000820151816000019080519060200190610ab0929190611af5565b506020820151816001015560408201518160020155606082015181600301556080820151816004015560a0820151816005015560c08201518160060160006101000a81548160ff02191690831515021790555060e08201518160060160016101000a81548160ff0219169083151502179055506101008201518160060160026101000a81548160ff0219169083151502179055505050610b6f34600360008e815260200190815260200160002060040154611adf90919063ffffffff16565b600360008d815260200190815260200160002060040181905550610bb36001600360008e815260200190815260200160002060090154611adf90919063ffffffff16565b600360008d8152602001908152602001600020600901819055508a7f04bf27135073be5940189302358f5cc1cc8d28169ef8a75dff8b469a5011006660405160405180910390a28a9650505050505050949350505050565b3360018054906101000a900473ffffffffffffffffffffffffffffffffffffffff1673ffffffffffffffffffffffffffffffffffffffff168173ffffffffffffffffffffffffffffffffffffffff1614610c9a576040517f08c379a0000000000000000000000000000000000000000000000000000000008152600401610c91906125d9565b60405180910390fd5b60018060006101000a81548160ff02191690831515021790555050565b3360018054906101000a900473ffffffffffffffffffffffffffffffffffffffff1673ffffffffffffffffffffffffffffffffffffffff168173ffffffffffffffffffffffffffffffffffffffff1614610d46576040517f08c379a0000000000000000000000000000000000000000000000000000000008152600401610d3d906125d9565b60405180910390fd5b6000600160006101000a81548160ff02191690831515021790555050565b600080600160009054906101000a900460ff1615610db7576040517f08c379a0000000000000000000000000000000000000000000000000000000008152600401610dae906123dd565b60405180910390fd5b83600060036000838152602001908152602001600020600201541415610e12576040517f08c379a0000000000000000000000000000000000000000000000000000000008152600401610e0990612449565b60405180910390fd5b84846000600460008481526020019081526020016000208281548110610e3b57610e3a6125f9565b5b9060005260206000209060070201600401541415610e8e576040517f08c379a0000000000000000000000000000000000000000000000000000000008152600401610e8590612674565b60405180910390fd5b33876003600082815260200190815260200160002060060160009054906101000a900473ffffffffffffffffffffffffffffffffffffffff1673ffffffffffffffffffffffffffffffffffffffff168273ffffffffffffffffffffffffffffffffffffffff1614610f34576040517f08c379a0000000000000000000000000000000000000000000000000000000008152600401610f2b90612706565b60405180910390fd5b6000600460008b81526020019081526020016000208981548110610f5b57610f5a6125f9565b5b90600052602060002090600702019050610f8360018260020154611adf90919063ffffffff16565b816002018190555060018160060160016101000a81548160ff02191690831515021790555080600101548160020154141561117b5760018160060160026101000a81548160ff021916908315150217905550611061816003015460026000600360008f815260200190815260200160002060080160009054906101000a900473ffffffffffffffffffffffffffffffffffffffff1673ffffffffffffffffffffffffffffffffffffffff1673ffffffffffffffffffffffffffffffffffffffff16815260200190815260200160002054611adf90919063ffffffff16565b60026000600360008e815260200190815260200160002060080160009054906101000a900473ffffffffffffffffffffffffffffffffffffffff1673ffffffffffffffffffffffffffffffffffffffff1673ffffffffffffffffffffffffffffffffffffffff16815260200190815260200160002081905550887f31433da623b4b78828c65c4f378dda3104c1ede841919f3a3c229f7ed91ef4e160405160405180910390a27fb729a3b42166d500abfcf91543fc2db14edb3e4d8753c07296e5e78624c500c9600360008c815260200190815260200160002060080160009054906101000a900473ffffffffffffffffffffffffffffffffffffffff168260030154604051611172929190612785565b60405180910390a15b888a7f63343b1ee44989e445910ebe5e700149a84279e2482a635a7d8b16fa2c9c5dd0336040516111ac91906127bd565b60405180910390a38989975097505050505050509250929050565b600160009054906101000a900460ff1681565b6000600160009054906101000a900460ff161561122c576040517f08c379a0000000000000000000000000000000000000000000000000000000008152600401611223906123dd565b60405180910390fd5b600054905060006040518061016001604052808381526020018481526020014281526020016112648942611adf90919063ffffffff16565b8152602001600081526020013373ffffffffffffffffffffffffffffffffffffffff1681526020018773ffffffffffffffffffffffffffffffffffffffff1681526020018673ffffffffffffffffffffffffffffffffffffffff1681526020018573ffffffffffffffffffffffffffffffffffffffff16815260200160001515815260200160008152509050806003600084815260200190815260200160002060008201518160000155602082015181600101908051906020019061132a929190611af5565b5060408201518160020155606082015181600301556080820151816004015560a08201518160050160006101000a81548173ffffffffffffffffffffffffffffffffffffffff021916908373ffffffffffffffffffffffffffffffffffffffff16021790555060c08201518160060160006101000a81548173ffffffffffffffffffffffffffffffffffffffff021916908373ffffffffffffffffffffffffffffffffffffffff16021790555060e08201518160070160006101000a81548173ffffffffffffffffffffffffffffffffffffffff021916908373ffffffffffffffffffffffffffffffffffffffff1602179055506101008201518160080160006101000a81548173ffffffffffffffffffffffffffffffffffffffff021916908373ffffffffffffffffffffffffffffffffffffffff1602179055506101208201518160080160146101000a81548160ff02191690831515021790555061014082015181600901559050506114ab6001600054611adf90919063ffffffff16565b600081905550817ff853b6517ea80f71e0ee26f85136651f42539afc8864349864567db7c42b414960405160405180910390a25095945050505050565b60018054906101000a900473ffffffffffffffffffffffffffffffffffffffff1681565b600080600160009054906101000a900460ff161561155f576040517f08c379a0000000000000000000000000000000000000000000000000000000008152600401611556906123dd565b60405180910390fd5b836000600360008381526020019081526020016000206002015414156115ba576040517f08c379a00000000000000000000000000000000000000000000000000000000081526004016115b190612449565b60405180910390fd5b848460006004600084815260200190815260200160002082815481106115e3576115e26125f9565b5b9060005260206000209060070201600401541415611636576040517f08c379a000000000000000000000000000000000000000000000000000000000815260040161162d90612674565b60405180910390fd5b33876003600082815260200190815260200160002060050160009054906101000a900473ffffffffffffffffffffffffffffffffffffffff1673ffffffffffffffffffffffffffffffffffffffff168273ffffffffffffffffffffffffffffffffffffffff16146116dc576040517f08c379a00000000000000000000000000000000000000000000000000000000081526004016116d39061256d565b60405180910390fd5b6117266001600460008c81526020019081526020016000208a81548110611706576117056125f9565b5b906000526020600020906007020160020154611adf90919063ffffffff16565b600460008b8152602001908152602001600020898154811061174b5761174a6125f9565b5b9060005260206000209060070201600201819055506001600460008b81526020019081526020016000208981548110611787576117866125f9565b5b906000526020600020906007020160060160006101000a81548160ff021916908315150217905550600460008a815260200190815260200160002088815481106117d4576117d36125f9565b5b906000526020600020906007020160010154600460008b8152602001908152602001600020898154811061180b5761180a6125f9565b5b9060005260206000209060070201600201541415611a7c576001600460008b8152602001908152602001600020898154811061184a576118496125f9565b5b906000526020600020906007020160060160026101000a81548160ff021916908315150217905550611930600460008b8152602001908152602001600020898154811061189a576118996125f9565b5b90600052602060002090600702016003015460026000600360008e815260200190815260200160002060080160009054906101000a900473ffffffffffffffffffffffffffffffffffffffff1673ffffffffffffffffffffffffffffffffffffffff1673ffffffffffffffffffffffffffffffffffffffff16815260200190815260200160002054611adf90919063ffffffff16565b60026000600360008d815260200190815260200160002060080160009054906101000a900473ffffffffffffffffffffffffffffffffffffffff1673ffffffffffffffffffffffffffffffffffffffff1673ffffffffffffffffffffffffffffffffffffffff16815260200190815260200160002081905550877f31433da623b4b78828c65c4f378dda3104c1ede841919f3a3c229f7ed91ef4e160405160405180910390a27fb729a3b42166d500abfcf91543fc2db14edb3e4d8753c07296e5e78624c500c9600360008b815260200190815260200160002060080160009054906101000a900473ffffffffffffffffffffffffffffffffffffffff16600460008c81526020019081526020016000208a81548110611a5357611a526125f9565b5b906000526020600020906007020160030154604051611a73929190612785565b60405180910390a15b87897fb7bbc182939fc2b8d0fe773fc7180f8d2ead413fe2f27ecd7a6fb8ad263bed2033604051611aad91906127bd565b60405180910390a388889650965050505050509250929050565b60026020528060005260406000206000915090505481565b60008183611aed9190612807565b905092915050565b828054611b0190612261565b90600052602060002090601f016020900481019282611b235760008555611b6a565b82601f10611b3c57805160ff1916838001178555611b6a565b82800160010185558215611b6a579182015b82811115611b69578251825591602001919060010190611b4e565b5b509050611b779190611b7b565b5090565b5b80821115611b94576000816000905550600101611b7c565b5090565b6000604051905090565b600080fd5b600080fd5b6000819050919050565b611bbf81611bac565b8114611bca57600080fd5b50565b600081359050611bdc81611bb6565b92915050565b600060208284031215611bf857611bf7611ba2565b5b6000611c0684828501611bcd565b91505092915050565b611c1881611bac565b82525050565b600081519050919050565b600082825260208201905092915050565b60005b83811015611c58578082015181840152602081019050611c3d565b83811115611c67576000848401525b50505050565b6000601f19601f8301169050919050565b6000611c8982611c1e565b611c938185611c29565b9350611ca3818560208601611c3a565b611cac81611c6d565b840191505092915050565b600073ffffffffffffffffffffffffffffffffffffffff82169050919050565b6000611ce282611cb7565b9050919050565b611cf281611cd7565b82525050565b60008115159050919050565b611d0d81611cf8565b82525050565b600061016082019050611d29600083018e611c0f565b8181036020830152611d3b818d611c7e565b9050611d4a604083018c611c0f565b611d57606083018b611c0f565b611d64608083018a611c0f565b611d7160a0830189611ce9565b611d7e60c0830188611ce9565b611d8b60e0830187611ce9565b611d99610100830186611ce9565b611da7610120830185611d04565b611db5610140830184611c0f565b9c9b505050505050505050505050565b6000602082019050611dda6000830184611c0f565b92915050565b60008060408385031215611df757611df6611ba2565b5b6000611e0585828601611bcd565b9250506020611e1685828601611bcd565b9150509250929050565b6000610120820190508181036000830152611e3b818c611c7e565b9050611e4a602083018b611c0f565b611e57604083018a611c0f565b611e646060830189611c0f565b611e716080830188611c0f565b611e7e60a0830187611c0f565b611e8b60c0830186611d04565b611e9860e0830185611d04565b611ea6610100830184611d04565b9a9950505050505050505050565b600080fd5b600080fd5b7f4e487b7100000000000000000000000000000000000000000000000000000000600052604160045260246000fd5b611ef682611c6d565b810181811067ffffffffffffffff82111715611f1557611f14611ebe565b5b80604052505050565b6000611f28611b98565b9050611f348282611eed565b919050565b600067ffffffffffffffff821115611f5457611f53611ebe565b5b611f5d82611c6d565b9050602081019050919050565b82818337600083830152505050565b6000611f8c611f8784611f39565b611f1e565b905082815260208101848484011115611fa857611fa7611eb9565b5b611fb3848285611f6a565b509392505050565b600082601f830112611fd057611fcf611eb4565b5b8135611fe0848260208601611f79565b91505092915050565b600060ff82169050919050565b611fff81611fe9565b811461200a57600080fd5b50565b60008135905061201c81611ff6565b92915050565b6000806000806080858703121561203c5761203b611ba2565b5b600061204a87828801611bcd565b945050602085013567ffffffffffffffff81111561206b5761206a611ba7565b5b61207787828801611fbb565b93505060406120888782880161200d565b925050606061209987828801611bcd565b91505092959194509250565b60006040820190506120ba6000830185611c0f565b6120c76020830184611c0f565b9392505050565b60006020820190506120e36000830184611d04565b92915050565b6120f281611cd7565b81146120fd57600080fd5b50565b60008135905061210f816120e9565b92915050565b600080600080600060a0868803121561213157612130611ba2565b5b600061213f88828901611bcd565b955050602061215088828901612100565b945050604061216188828901612100565b935050606061217288828901612100565b925050608086013567ffffffffffffffff81111561219357612192611ba7565b5b61219f88828901611fbb565b9150509295509295909350565b60006020820190506121c16000830184611ce9565b92915050565b60006121d282611cb7565b9050919050565b6121e2816121c7565b81146121ed57600080fd5b50565b6000813590506121ff816121d9565b92915050565b60006020828403121561221b5761221a611ba2565b5b6000612229848285016121f0565b91505092915050565b7f4e487b7100000000000000000000000000000000000000000000000000000000600052602260045260246000fd5b6000600282049050600182168061227957607f821691505b6020821081141561228d5761228c612232565b5b50919050565b7f526563697069656e7420686173206e6f2070656e64696e67207769746864726160008201527f77616c7300000000000000000000000000000000000000000000000000000000602082015250565b60006122ef602483611c29565b91506122fa82612293565b604082019050919050565b6000602082019050818103600083015261231e816122e2565b9050919050565b7f436f6e747261637420657865637574696f6e2070617573656400000000000000600082015250565b600061235b601983611c29565b915061236682612325565b602082019050919050565b6000602082019050818103600083015261238a8161234e565b9050919050565b7f436f6e747261637420696e616374697665000000000000000000000000000000600082015250565b60006123c7601183611c29565b91506123d282612391565b602082019050919050565b600060208201905081810360008301526123f6816123ba565b9050919050565b7f4f61746820646f6573206e6f7420657869737400000000000000000000000000600082015250565b6000612433601383611c29565b915061243e826123fd565b602082019050919050565b6000602082019050818103600083015261246281612426565b9050919050565b7f596f75722062616c616e636520697320696e73756666696369656e7420666f7260008201527f206372656174696e67206571756976616c656e74206d696c6573746f6e650000602082015250565b60006124c5603e83611c29565b91506124d082612469565b604082019050919050565b600060208201905081810360008301526124f4816124b8565b9050919050565b7f416363657373207265737472696374656420746f206f6e6c79204f6174682d4760008201527f6976657200000000000000000000000000000000000000000000000000000000602082015250565b6000612557602483611c29565b9150612562826124fb565b604082019050919050565b600060208201905081810360008301526125868161254a565b9050919050565b7f556e617574686f72697365640000000000000000000000000000000000000000600082015250565b60006125c3600c83611c29565b91506125ce8261258d565b602082019050919050565b600060208201905081810360008301526125f2816125b6565b9050919050565b7f4e487b7100000000000000000000000000000000000000000000000000000000600052603260045260246000fd5b7f4d696c6573746f6e6520646f6573206e6f742065786973740000000000000000600082015250565b600061265e601883611c29565b915061266982612628565b602082019050919050565b6000602082019050818103600083015261268d81612651565b9050919050565b7f416363657373207265737472696374656420746f206f6e6c79204f6174682d5460008201527f616b657200000000000000000000000000000000000000000000000000000000602082015250565b60006126f0602483611c29565b91506126fb82612694565b604082019050919050565b6000602082019050818103600083015261271f816126e3565b9050919050565b6000819050919050565b600061274b61274661274184611cb7565b612726565b611cb7565b9050919050565b600061275d82612730565b9050919050565b600061276f82612752565b9050919050565b61277f81612764565b82525050565b600060408201905061279a6000830185612776565b6127a76020830184611c0f565b9392505050565b6127b7816121c7565b82525050565b60006020820190506127d260008301846127ae565b92915050565b7f4e487b7100000000000000000000000000000000000000000000000000000000600052601160045260246000fd5b600061281282611bac565b915061281d83611bac565b9250827fffffffffffffffffffffffffffffffffffffffffffffffffffffffffffffffff03821115612852576128516127d8565b5b82820190509291505056fea2646970667358221220eeadb3cddb8ed35bf395a237074b46d13ea88ce7654f8e4bd675ac845d4b41d164736f6c634300080b0033",
  "immutableReferences": {},
  "source": "// SPDX-License-Identifier: MIT\r\npragma solidity ^0.8.0;\r\nimport \"@openzeppelin/contracts/utils/math/SafeMath.sol\";\r\n\r\n/// @title OathKeeper contract\r\n/// @author Bisoye\r\n/// @notice This contract gives you the ability to create oaths and its milestone and also manage withdrawals\r\n/// @dev All function calls are currently implemented without side effects\r\n\r\ncontract OathKeeper {\r\n    using SafeMath for uint256;\r\n\r\n    uint256 private oathCount = 0;\r\n\r\n    bool public stopped = false;\r\n\r\n    address payable public owner;\r\n\r\n    mapping(address => uint256) public pendingWithdrawals;\r\n\r\n    mapping(uint256 => Oath) public oaths;\r\n\r\n    struct Oath {\r\n        uint256 Id;\r\n        string body;\r\n        uint256 timeCreated;\r\n        uint256 deadline;\r\n        uint256 oathValue;\r\n        address payable oathGiver;\r\n        address payable oathTaker;\r\n        address payable defaultsRecipient;\r\n        address payable completionRecipient;\r\n        bool useVerifiers;\r\n        uint256 milestoneCount;\r\n    }\r\n\r\n    mapping(uint256 => Milestone[]) public milestones;\r\n\r\n    struct Milestone {\r\n        // oathId acts as foreignkey to link milestone to oath\r\n        string milestoneBody;\r\n        uint256 confirmations;\r\n        uint256 confirmationsSoFar;\r\n        uint256 milestoneValue;\r\n        uint256 milestoneCreated;\r\n        uint256 milestoneDeadline;\r\n        bool oathGiverVerified;\r\n        bool oathTakerVerified;\r\n        bool completed;\r\n    }\r\n\r\n    /**\r\n     * MODIFIERS\r\n     */\r\n\r\n    modifier onlyOathGiver(address _oathGiver, uint256 _oathId) {\r\n        require(\r\n            _oathGiver == oaths[_oathId].oathGiver,\r\n            \"Access restricted to only Oath-Giver\"\r\n        );\r\n        _;\r\n    }\r\n\r\n    modifier onlyOathTaker(address _oathTaker, uint256 _oathId) {\r\n        require(\r\n            _oathTaker == oaths[_oathId].oathTaker,\r\n            \"Access restricted to only Oath-Taker\"\r\n        );\r\n        _;\r\n    }\r\n\r\n    modifier oathExists(uint256 _oathId) {\r\n        require(oaths[_oathId].timeCreated != 0, \"Oath does not exist\");\r\n        _;\r\n    }\r\n\r\n    modifier milestoneExists(uint256 _oathId, uint256 _milestoneId) {\r\n        require(\r\n            milestones[_oathId][_milestoneId].milestoneCreated != 0,\r\n            \"Milestone does not exist\"\r\n        );\r\n        _;\r\n    }\r\n\r\n    modifier senderHasPendingWithdrawals(address _recipient) {\r\n        require(\r\n            pendingWithdrawals[_recipient] != 0,\r\n            \"Recipient has no pending withdrawals\"\r\n        );\r\n        _;\r\n    }\r\n\r\n    modifier hasEnoughToCreateMilestone(\r\n        address oathGiver,\r\n        uint256 _milestoneValue\r\n    ) {\r\n        require(\r\n            oathGiver.balance >= _milestoneValue,\r\n            \"Your balance is insufficient for creating equivalent milestone\"\r\n        );\r\n        _;\r\n    }\r\n\r\n    modifier onlyOwner(address _sender) {\r\n        require(_sender == owner, \"Unauthorised\");\r\n        _;\r\n    }\r\n\r\n    modifier notEmergency() {\r\n        require(!stopped, \"Contract inactive\");\r\n        _;\r\n    }\r\n\r\n    modifier emergency() {\r\n        require(stopped, \"Contract execution paused\");\r\n        _;\r\n    }\r\n\r\n    /**\r\n     * EVENTS\r\n     */\r\n    event oathCreated(uint256 indexed oathid);\r\n\r\n    event milestoneCreatedForOath(uint256 indexed oathId);\r\n\r\n    event oathGiverMarkMilestone(\r\n        address oathGiver,\r\n        uint256 indexed oathid,\r\n        uint256 indexed milestoneId\r\n    );\r\n\r\n    event oathTakerMarkMilestone(\r\n        address oathTaker,\r\n        uint256 indexed oathid,\r\n        uint256 indexed milestoneId\r\n    );\r\n\r\n    event withdrawalMade(address indexed recipient, uint256 indexed amount);\r\n\r\n    event confirmationsComplete(uint256 indexed milestoneId);\r\n\r\n    event recipientCredited(address recipient, uint256 amount);\r\n\r\n    /**\r\n     * METHODS\r\n     */\r\n\r\n    constructor() {\r\n        owner = payable(msg.sender);\r\n    }\r\n\r\n    function pauseContract() public onlyOwner(msg.sender) {\r\n        stopped = true;\r\n    }\r\n\r\n    function startContract() public onlyOwner(msg.sender) {\r\n        stopped = false;\r\n    }\r\n\r\n    /// @notice create oath\r\n    /// @param _deadline When oath expires\r\n    /// @param _oathTaker (required) user who can mark milestone as done\r\n    /// @param _defaultsRecipient (required) address to pay when milestone is missed\r\n    /// @param _completionRecipient (required) address to pay when milestone is crushed\r\n    /// @param _body some description of the milestone\r\n    /// @return _oathId\r\n    function createOath(\r\n        uint256 _deadline,\r\n        address payable _oathTaker,\r\n        address payable _defaultsRecipient,\r\n        address payable _completionRecipient,\r\n        string memory _body\r\n    ) public notEmergency returns (uint256 _oathId) {\r\n        _oathId = oathCount;\r\n        Oath memory newoath = Oath(\r\n            _oathId,\r\n            _body,\r\n            block.timestamp,\r\n            block.timestamp.add(_deadline),\r\n            0,\r\n            payable(msg.sender),\r\n            _oathTaker,\r\n            _defaultsRecipient,\r\n            _completionRecipient,\r\n            false,\r\n            0\r\n        );\r\n        oaths[_oathId] = newoath;\r\n        oathCount = oathCount.add(1);\r\n        emit oathCreated(_oathId);\r\n    }\r\n\r\n    /// @notice\r\n    /// @dev\r\n    /// @return oathCount\r\n    function getOathCount() public view returns (uint256) {\r\n        return oathCount;\r\n    }\r\n\r\n    /// @notice Add milestone to existing oath\r\n    /// @param _oathId The id of oath to add milestone\r\n    /// @return updatedOathId\r\n    function addMilestoneToOath(\r\n        uint256 _oathId,\r\n        string memory _milestoneBody,\r\n        uint8 _confirmations,\r\n        uint256 _milestoneDeadline\r\n    )\r\n        public\r\n        payable\r\n        notEmergency\r\n        oathExists(_oathId)\r\n        hasEnoughToCreateMilestone(msg.sender, msg.value)\r\n        onlyOathGiver(msg.sender, _oathId)\r\n        returns (uint256)\r\n    {\r\n        owner.transfer(msg.value);\r\n        Milestone memory milestone = Milestone(\r\n            _milestoneBody,\r\n            _confirmations,\r\n            0,\r\n            msg.value,\r\n            block.timestamp,\r\n            block.timestamp.add(_milestoneDeadline),\r\n            false,\r\n            false,\r\n            false\r\n        );\r\n        milestones[_oathId].push(milestone);\r\n        oaths[_oathId].oathValue = oaths[_oathId].oathValue.add(msg.value);\r\n        oaths[_oathId].milestoneCount = oaths[_oathId].milestoneCount.add(1);\r\n\r\n        emit milestoneCreatedForOath(_oathId);\r\n        return _oathId;\r\n    }\r\n\r\n    /// @notice\r\n    /// @dev\r\n    /// @param _oathId The id of oath to add milestone\r\n    /// @return _oathId, _milestoneId\r\n    function oathGiverMarkMilestoneAsDone(uint256 _oathId, uint256 _milestoneId)\r\n        public\r\n        notEmergency\r\n        oathExists(_oathId)\r\n        milestoneExists(_oathId, _milestoneId)\r\n        onlyOathGiver(msg.sender, _oathId)\r\n        returns (uint256, uint256)\r\n    {\r\n        // Milestone memory milestone = milestones[_oathId][_milestoneId];\r\n        milestones[_oathId][_milestoneId].confirmationsSoFar = milestones[\r\n            _oathId\r\n        ][_milestoneId].confirmationsSoFar.add(1);\r\n        milestones[_oathId][_milestoneId].oathGiverVerified = true;\r\n        if (\r\n            milestones[_oathId][_milestoneId].confirmationsSoFar ==\r\n            milestones[_oathId][_milestoneId].confirmations\r\n        ) {\r\n            // Give ether value to success recipient\r\n            milestones[_oathId][_milestoneId].completed = true;\r\n            pendingWithdrawals[\r\n                oaths[_oathId].completionRecipient\r\n            ] = pendingWithdrawals[oaths[_oathId].completionRecipient].add(\r\n                milestones[_oathId][_milestoneId].milestoneValue\r\n            );\r\n            emit confirmationsComplete(_milestoneId);\r\n            emit recipientCredited(\r\n                oaths[_oathId].completionRecipient,\r\n                milestones[_oathId][_milestoneId].milestoneValue\r\n            );\r\n        }\r\n        emit oathGiverMarkMilestone(msg.sender, _oathId, _milestoneId);\r\n        return (_oathId, _milestoneId);\r\n    }\r\n\r\n    /// @notice\r\n    /// @dev\r\n    /// @param _oathId The id of oath to add milestone\r\n    /// @return _oathId, _milestoneId\r\n    function oathTakerMarkMilestoneAsDone(uint256 _oathId, uint256 _milestoneId)\r\n        public\r\n        notEmergency\r\n        oathExists(_oathId)\r\n        milestoneExists(_oathId, _milestoneId)\r\n        onlyOathTaker(msg.sender, _oathId)\r\n        returns (uint256, uint256)\r\n    {\r\n        Milestone storage milestone = milestones[_oathId][_milestoneId];\r\n        milestone.confirmationsSoFar = milestone.confirmationsSoFar.add(1);\r\n        milestone.oathTakerVerified = true;\r\n        if (milestone.confirmationsSoFar == milestone.confirmations) {\r\n            // Give ether value to success recipient\r\n            milestone.completed = true;\r\n            pendingWithdrawals[\r\n                oaths[_oathId].completionRecipient\r\n            ] = pendingWithdrawals[oaths[_oathId].completionRecipient].add(\r\n                milestone.milestoneValue\r\n            );\r\n            emit confirmationsComplete(_milestoneId);\r\n            emit recipientCredited(\r\n                oaths[_oathId].completionRecipient,\r\n                milestone.milestoneValue\r\n            );\r\n        }\r\n        emit oathTakerMarkMilestone(msg.sender, _oathId, _milestoneId);\r\n        return (_oathId, _milestoneId);\r\n    }\r\n\r\n    /// @notice\r\n    /// @dev\r\n    /// @return amount The ether value sent to recipient\r\n    function withdrawFunds()\r\n        public\r\n        senderHasPendingWithdrawals(msg.sender)\r\n        emergency\r\n        returns (uint256)\r\n    {\r\n        uint256 amount = pendingWithdrawals[msg.sender];\r\n        // Avoid re-entrancy by zeroing amount before sending;\r\n        pendingWithdrawals[msg.sender] = 0;\r\n        payable(msg.sender).transfer(amount);\r\n        emit withdrawalMade(msg.sender, amount);\r\n        return amount;\r\n    }\r\n\r\n    /// @notice Fallback function\r\n    fallback() external payable {}\r\n\r\n    /// @notice Fallback function\r\n    receive() external payable {}\r\n\r\n    // function oathVerifierMarkMilestoneAsDone(uint _oathId) public returns (uint) {\r\n    //     milestones[_oathId].confirmations++;\r\n    //     milestones[_oathId].oathGiverVerified = true;\r\n    // }\r\n}\r\n",
  "sourcePath": "C:\\Users\\bmaye\\Documents\\blockchain-developer-bootcamp-final-project\\contracts\\OathKeeper.sol",
  "compiler": {
    "name": "solc",
    "version": "0.8.11+commit.d7f03943.Emscripten.clang"
  },
  "schemaVersion": "3.4.2",
  "updatedAt": "2022-01-16T13:15:45.583Z",
  "networkType": "ethereum",
  "devdoc": {
    "author": "Bisoye",
    "details": "All function calls are currently implemented without side effects",
    "kind": "dev",
    "methods": {
      "addMilestoneToOath(uint256,string,uint8,uint256)": {
        "params": {
          "_oathId": "The id of oath to add milestone"
        },
        "returns": {
          "_0": "updatedOathId"
        }
      },
      "createOath(uint256,address,address,address,string)": {
        "params": {
          "_body": "some description of the milestone",
          "_completionRecipient": "(required) address to pay when milestone is crushed",
          "_deadline": "When oath expires",
          "_defaultsRecipient": "(required) address to pay when milestone is missed",
          "_oathTaker": "(required) user who can mark milestone as done"
        },
        "returns": {
          "_oathId": "_oathId"
        }
      },
      "getOathCount()": {
        "returns": {
          "_0": "oathCount"
        }
      },
      "oathGiverMarkMilestoneAsDone(uint256,uint256)": {
        "params": {
          "_oathId": "The id of oath to add milestone"
        },
        "returns": {
          "_0": "_oathId, _milestoneId"
        }
      },
      "oathTakerMarkMilestoneAsDone(uint256,uint256)": {
        "params": {
          "_oathId": "The id of oath to add milestone"
        },
        "returns": {
          "_0": "_oathId, _milestoneId"
        }
      },
      "withdrawFunds()": {
        "returns": {
          "_0": "amount The ether value sent to recipient"
        }
      }
    },
    "title": "OathKeeper contract",
    "version": 1
  },
  "userdoc": {
    "events": {
      "oathCreated(uint256)": {
        "notice": "EVENTS"
      }
    },
    "kind": "user",
    "methods": {
      "addMilestoneToOath(uint256,string,uint8,uint256)": {
        "notice": "Add milestone to existing oath"
      },
      "constructor": {
        "notice": "METHODS"
      },
      "createOath(uint256,address,address,address,string)": {
        "notice": "create oath"
      },
      "getOathCount()": {
        "notice": "@dev"
      },
      "oathGiverMarkMilestoneAsDone(uint256,uint256)": {
        "notice": "@dev"
      },
      "oathTakerMarkMilestoneAsDone(uint256,uint256)": {
        "notice": "@dev"
      },
      "withdrawFunds()": {
        "notice": "@dev"
      }
    },
    "notice": "This contract gives you the ability to create oaths and its milestone and also manage withdrawals",
    "version": 1
  }
}